{
  "contractName": "NoteBoxFactory",
  "abi": [
    {
      "inputs": [
        {
          "internalType": "address",
          "name": "_VRFCoordinator",
          "type": "address"
        },
        {
          "internalType": "address",
          "name": "_LinkToken",
          "type": "address"
        },
        {
          "internalType": "bytes32",
          "name": "_keyhash",
          "type": "bytes32"
        }
      ],
      "stateMutability": "nonpayable",
      "type": "constructor"
    },
    {
      "anonymous": false,
      "inputs": [
        {
          "indexed": true,
          "internalType": "address",
          "name": "owner",
          "type": "address"
        },
        {
          "indexed": true,
          "internalType": "address",
          "name": "approved",
          "type": "address"
        },
        {
          "indexed": true,
          "internalType": "uint256",
          "name": "tokenId",
          "type": "uint256"
        }
      ],
      "name": "Approval",
      "type": "event"
    },
    {
      "anonymous": false,
      "inputs": [
        {
          "indexed": true,
          "internalType": "address",
          "name": "owner",
          "type": "address"
        },
        {
          "indexed": true,
          "internalType": "address",
          "name": "operator",
          "type": "address"
        },
        {
          "indexed": false,
          "internalType": "bool",
          "name": "approved",
          "type": "bool"
        }
      ],
      "name": "ApprovalForAll",
      "type": "event"
    },
    {
      "anonymous": false,
      "inputs": [
        {
          "indexed": true,
          "internalType": "address",
          "name": "previousOwner",
          "type": "address"
        },
        {
          "indexed": true,
          "internalType": "address",
          "name": "newOwner",
          "type": "address"
        }
      ],
      "name": "OwnershipTransferred",
      "type": "event"
    },
    {
      "anonymous": false,
      "inputs": [
        {
          "indexed": true,
          "internalType": "address",
          "name": "from",
          "type": "address"
        },
        {
          "indexed": true,
          "internalType": "address",
          "name": "to",
          "type": "address"
        },
        {
          "indexed": true,
          "internalType": "uint256",
          "name": "tokenId",
          "type": "uint256"
        }
      ],
      "name": "Transfer",
      "type": "event"
    },
    {
      "inputs": [],
      "name": "LinkToken",
      "outputs": [
        {
          "internalType": "address",
          "name": "",
          "type": "address"
        }
      ],
      "stateMutability": "view",
      "type": "function",
      "constant": true
    },
    {
      "inputs": [],
      "name": "VRFCoordinator",
      "outputs": [
        {
          "internalType": "address",
          "name": "",
          "type": "address"
        }
      ],
      "stateMutability": "view",
      "type": "function",
      "constant": true
    },
    {
      "inputs": [
        {
          "internalType": "address",
          "name": "to",
          "type": "address"
        },
        {
          "internalType": "uint256",
          "name": "tokenId",
          "type": "uint256"
        }
      ],
      "name": "approve",
      "outputs": [],
      "stateMutability": "nonpayable",
      "type": "function"
    },
    {
      "inputs": [
        {
          "internalType": "address",
          "name": "owner",
          "type": "address"
        }
      ],
      "name": "balanceOf",
      "outputs": [
        {
          "internalType": "uint256",
          "name": "",
          "type": "uint256"
        }
      ],
      "stateMutability": "view",
      "type": "function",
      "constant": true
    },
    {
      "inputs": [],
      "name": "baseURI",
      "outputs": [
        {
          "internalType": "string",
          "name": "",
          "type": "string"
        }
      ],
      "stateMutability": "view",
      "type": "function",
      "constant": true
    },
    {
      "inputs": [
        {
          "internalType": "uint256",
          "name": "tokenId",
          "type": "uint256"
        }
      ],
      "name": "getApproved",
      "outputs": [
        {
          "internalType": "address",
          "name": "",
          "type": "address"
        }
      ],
      "stateMutability": "view",
      "type": "function",
      "constant": true
    },
    {
      "inputs": [
        {
          "internalType": "address",
          "name": "owner",
          "type": "address"
        },
        {
          "internalType": "address",
          "name": "operator",
          "type": "address"
        }
      ],
      "name": "isApprovedForAll",
      "outputs": [
        {
          "internalType": "bool",
          "name": "",
          "type": "bool"
        }
      ],
      "stateMutability": "view",
      "type": "function",
      "constant": true
    },
    {
      "inputs": [],
      "name": "name",
      "outputs": [
        {
          "internalType": "string",
          "name": "",
          "type": "string"
        }
      ],
      "stateMutability": "view",
      "type": "function",
      "constant": true
    },
    {
      "inputs": [
        {
          "internalType": "uint256",
          "name": "",
          "type": "uint256"
        }
      ],
      "name": "noteBoxes",
      "outputs": [
        {
          "internalType": "uint256",
          "name": "strength",
          "type": "uint256"
        },
        {
          "internalType": "uint256",
          "name": "dexterity",
          "type": "uint256"
        },
        {
          "internalType": "uint256",
          "name": "constitution",
          "type": "uint256"
        },
        {
          "internalType": "uint256",
          "name": "intelligence",
          "type": "uint256"
        },
        {
          "internalType": "uint256",
          "name": "wisdom",
          "type": "uint256"
        },
        {
          "internalType": "uint256",
          "name": "charisma",
          "type": "uint256"
        },
        {
          "internalType": "uint256",
          "name": "experience",
          "type": "uint256"
        },
        {
          "internalType": "string",
          "name": "name",
          "type": "string"
        }
      ],
      "stateMutability": "view",
      "type": "function",
      "constant": true
    },
    {
      "inputs": [],
      "name": "owner",
      "outputs": [
        {
          "internalType": "address",
          "name": "",
          "type": "address"
        }
      ],
      "stateMutability": "view",
      "type": "function",
      "constant": true
    },
    {
      "inputs": [
        {
          "internalType": "uint256",
          "name": "tokenId",
          "type": "uint256"
        }
      ],
      "name": "ownerOf",
      "outputs": [
        {
          "internalType": "address",
          "name": "",
          "type": "address"
        }
      ],
      "stateMutability": "view",
      "type": "function",
      "constant": true
    },
    {
      "inputs": [],
      "name": "randomResult",
      "outputs": [
        {
          "internalType": "uint256",
          "name": "",
          "type": "uint256"
        }
      ],
      "stateMutability": "view",
      "type": "function",
      "constant": true
    },
    {
      "inputs": [
        {
          "internalType": "bytes32",
          "name": "requestId",
          "type": "bytes32"
        },
        {
          "internalType": "uint256",
          "name": "randomness",
          "type": "uint256"
        }
      ],
      "name": "rawFulfillRandomness",
      "outputs": [],
      "stateMutability": "nonpayable",
      "type": "function"
    },
    {
      "inputs": [],
      "name": "renounceOwnership",
      "outputs": [],
      "stateMutability": "nonpayable",
      "type": "function"
    },
    {
      "inputs": [
        {
          "internalType": "address",
          "name": "from",
          "type": "address"
        },
        {
          "internalType": "address",
          "name": "to",
          "type": "address"
        },
        {
          "internalType": "uint256",
          "name": "tokenId",
          "type": "uint256"
        }
      ],
      "name": "safeTransferFrom",
      "outputs": [],
      "stateMutability": "nonpayable",
      "type": "function"
    },
    {
      "inputs": [
        {
          "internalType": "address",
          "name": "from",
          "type": "address"
        },
        {
          "internalType": "address",
          "name": "to",
          "type": "address"
        },
        {
          "internalType": "uint256",
          "name": "tokenId",
          "type": "uint256"
        },
        {
          "internalType": "bytes",
          "name": "_data",
          "type": "bytes"
        }
      ],
      "name": "safeTransferFrom",
      "outputs": [],
      "stateMutability": "nonpayable",
      "type": "function"
    },
    {
      "inputs": [
        {
          "internalType": "address",
          "name": "operator",
          "type": "address"
        },
        {
          "internalType": "bool",
          "name": "approved",
          "type": "bool"
        }
      ],
      "name": "setApprovalForAll",
      "outputs": [],
      "stateMutability": "nonpayable",
      "type": "function"
    },
    {
      "inputs": [
        {
          "internalType": "bytes4",
          "name": "interfaceId",
          "type": "bytes4"
        }
      ],
      "name": "supportsInterface",
      "outputs": [
        {
          "internalType": "bool",
          "name": "",
          "type": "bool"
        }
      ],
      "stateMutability": "view",
      "type": "function",
      "constant": true
    },
    {
      "inputs": [],
      "name": "symbol",
      "outputs": [
        {
          "internalType": "string",
          "name": "",
          "type": "string"
        }
      ],
      "stateMutability": "view",
      "type": "function",
      "constant": true
    },
    {
      "inputs": [
        {
          "internalType": "uint256",
          "name": "index",
          "type": "uint256"
        }
      ],
      "name": "tokenByIndex",
      "outputs": [
        {
          "internalType": "uint256",
          "name": "",
          "type": "uint256"
        }
      ],
      "stateMutability": "view",
      "type": "function",
      "constant": true
    },
    {
      "inputs": [
        {
          "internalType": "address",
          "name": "owner",
          "type": "address"
        },
        {
          "internalType": "uint256",
          "name": "index",
          "type": "uint256"
        }
      ],
      "name": "tokenOfOwnerByIndex",
      "outputs": [
        {
          "internalType": "uint256",
          "name": "",
          "type": "uint256"
        }
      ],
      "stateMutability": "view",
      "type": "function",
      "constant": true
    },
    {
      "inputs": [
        {
          "internalType": "uint256",
          "name": "tokenId",
          "type": "uint256"
        }
      ],
      "name": "tokenURI",
      "outputs": [
        {
          "internalType": "string",
          "name": "",
          "type": "string"
        }
      ],
      "stateMutability": "view",
      "type": "function",
      "constant": true
    },
    {
      "inputs": [],
      "name": "totalSupply",
      "outputs": [
        {
          "internalType": "uint256",
          "name": "",
          "type": "uint256"
        }
      ],
      "stateMutability": "view",
      "type": "function",
      "constant": true
    },
    {
      "inputs": [
        {
          "internalType": "address",
          "name": "from",
          "type": "address"
        },
        {
          "internalType": "address",
          "name": "to",
          "type": "address"
        },
        {
          "internalType": "uint256",
          "name": "tokenId",
          "type": "uint256"
        }
      ],
      "name": "transferFrom",
      "outputs": [],
      "stateMutability": "nonpayable",
      "type": "function"
    },
    {
      "inputs": [
        {
          "internalType": "address",
          "name": "newOwner",
          "type": "address"
        }
      ],
      "name": "transferOwnership",
      "outputs": [],
      "stateMutability": "nonpayable",
      "type": "function"
    },
    {
      "inputs": [
        {
          "internalType": "uint256",
          "name": "userProvidedSeed",
          "type": "uint256"
        },
        {
          "internalType": "string",
          "name": "name",
          "type": "string"
        }
      ],
      "name": "requestNewRandomNoteBox",
      "outputs": [
        {
          "internalType": "bytes32",
          "name": "",
          "type": "bytes32"
        }
      ],
      "stateMutability": "nonpayable",
      "type": "function"
    },
    {
      "inputs": [
        {
          "internalType": "uint256",
          "name": "tokenId",
          "type": "uint256"
        }
      ],
      "name": "getTokenURI",
      "outputs": [
        {
          "internalType": "string",
          "name": "",
          "type": "string"
        }
      ],
      "stateMutability": "view",
      "type": "function",
      "constant": true
    },
    {
      "inputs": [
        {
          "internalType": "uint256",
          "name": "tokenId",
          "type": "uint256"
        },
        {
          "internalType": "string",
          "name": "_tokenURI",
          "type": "string"
        }
      ],
      "name": "setTokenURI",
      "outputs": [],
      "stateMutability": "nonpayable",
      "type": "function"
    },
    {
      "inputs": [
        {
          "internalType": "uint256",
          "name": "tokenId",
          "type": "uint256"
        }
      ],
      "name": "getLevel",
      "outputs": [
        {
          "internalType": "uint256",
          "name": "",
          "type": "uint256"
        }
      ],
      "stateMutability": "view",
      "type": "function",
      "constant": true
    },
    {
      "inputs": [],
      "name": "getNumberOfNoteBoxes",
      "outputs": [
        {
          "internalType": "uint256",
          "name": "",
          "type": "uint256"
        }
      ],
      "stateMutability": "view",
      "type": "function",
      "constant": true
    },
    {
      "inputs": [
        {
          "internalType": "uint256",
          "name": "tokenId",
          "type": "uint256"
        }
      ],
      "name": "getNoteBoxOverView",
      "outputs": [
        {
          "internalType": "string",
          "name": "",
          "type": "string"
        },
        {
          "internalType": "uint256",
          "name": "",
          "type": "uint256"
        },
        {
          "internalType": "uint256",
          "name": "",
          "type": "uint256"
        },
        {
          "internalType": "uint256",
          "name": "",
          "type": "uint256"
        }
      ],
      "stateMutability": "view",
      "type": "function",
      "constant": true
    },
    {
      "inputs": [
        {
          "internalType": "uint256",
          "name": "tokenId",
          "type": "uint256"
        }
      ],
      "name": "getNoteBoxStats",
      "outputs": [
        {
          "internalType": "uint256",
          "name": "",
          "type": "uint256"
        },
        {
          "internalType": "uint256",
          "name": "",
          "type": "uint256"
        },
        {
          "internalType": "uint256",
          "name": "",
          "type": "uint256"
        },
        {
          "internalType": "uint256",
          "name": "",
          "type": "uint256"
        },
        {
          "internalType": "uint256",
          "name": "",
          "type": "uint256"
        },
        {
          "internalType": "uint256",
          "name": "",
          "type": "uint256"
        },
        {
          "internalType": "uint256",
          "name": "",
          "type": "uint256"
        }
      ],
      "stateMutability": "view",
      "type": "function",
      "constant": true
    }
  ],
  "bytecode": "0x60c06040523480156200001157600080fd5b50604051620048b3380380620048b3833981810160405260608110156200003757600080fd5b8101908080519060200190929190805190602001909291908051906020019092919050505082826040518060400160405280600e81526020017f4e6f7465426f78466163746f72790000000000000000000000000000000000008152506040518060400160405280600381526020017f4426440000000000000000000000000000000000000000000000000000000000815250620000e26301ffc9a760e01b6200032060201b60201c565b8160069080519060200190620000fa92919062000431565b5080600790805190602001906200011392919062000431565b506200012c6380ac58cd60e01b6200032060201b60201c565b62000144635b5e139f60e01b6200032060201b60201c565b6200015c63780e9d6360e01b6200032060201b60201c565b50508173ffffffffffffffffffffffffffffffffffffffff1660a08173ffffffffffffffffffffffffffffffffffffffff1660601b815250508073ffffffffffffffffffffffffffffffffffffffff1660808173ffffffffffffffffffffffffffffffffffffffff1660601b8152505050506000620001e06200042960201b60201c565b905080600b60006101000a81548173ffffffffffffffffffffffffffffffffffffffff021916908373ffffffffffffffffffffffffffffffffffffffff1602179055508073ffffffffffffffffffffffffffffffffffffffff16600073ffffffffffffffffffffffffffffffffffffffff167f8be0079c531659141344cd1fd0a4f28419497f9722a3daafe3b4186f6b6457e060405160405180910390a35082600f60006101000a81548173ffffffffffffffffffffffffffffffffffffffff021916908373ffffffffffffffffffffffffffffffffffffffff16021790555081601060006101000a81548173ffffffffffffffffffffffffffffffffffffffff021916908373ffffffffffffffffffffffffffffffffffffffff16021790555080600c8190555067016345785d8a0000600d81905550505050620004e0565b63ffffffff60e01b817bffffffffffffffffffffffffffffffffffffffffffffffffffffffff19161415620003bd576040517f08c379a000000000000000000000000000000000000000000000000000000000815260040180806020018281038252601c8152602001807f4552433136353a20696e76616c696420696e746572666163652069640000000081525060200191505060405180910390fd5b6001600080837bffffffffffffffffffffffffffffffffffffffffffffffffffffffff19167bffffffffffffffffffffffffffffffffffffffffffffffffffffffff1916815260200190815260200160002060006101000a81548160ff02191690831515021790555050565b600033905090565b828054600181600116156101000203166002900490600052602060002090601f016020900481019282601f106200047457805160ff1916838001178555620004a5565b82800160010185558215620004a5579182015b82811115620004a457825182559160200191906001019062000487565b5b509050620004b49190620004b8565b5090565b620004dd91905b80821115620004d9576000816000905550600101620004bf565b5090565b90565b60805160601c60a05160601c61439f6200051460003980611d6d5280612b815250806113e75280612b45525061439f6000f3fe608060405234801561001057600080fd5b50600436106101f05760003560e01c806365e2d2891161010f57806394985ddd116100a2578063c82c24a211610071578063c82c24a214610e1d578063c87b56dd14610e3b578063e985e9c514610ee2578063f2fde38b14610f5e576101f0565b806394985ddd14610c0d57806395d89b4114610c45578063a22cb46514610cc8578063b88d4fde14610d18576101f0565b80637ef29f3b116100de5780637ef29f3b14610a595780638327b9e614610ac557806386481d4014610b815780638da5cb5b14610bc3576101f0565b806365e2d2891461089c5780636c0360eb1461097457806370a08231146109f7578063715018a614610a4f576101f0565b8063307dab561161018757806342842e0e1161015657806342842e0e146107345780634f6ccce7146107a25780634f8e2fdf146107e45780636352211e1461082e576101f0565b8063307dab561461054c57806333b60863146106255780633bb3a24d1461066f57806342619f6614610716576101f0565b8063162094c4116101c3578063162094c41461039957806318160ddd1461045e57806323b872dd1461047c5780632f745c59146104ea576101f0565b806301ffc9a7146101f557806306fdde031461025a578063081812fc146102dd578063095ea7b31461034b575b600080fd5b6102406004803603602081101561020b57600080fd5b8101908080357bffffffffffffffffffffffffffffffffffffffffffffffffffffffff19169060200190929190505050610fa2565b604051808215151515815260200191505060405180910390f35b610262611009565b6040518080602001828103825283818151815260200191508051906020019080838360005b838110156102a2578082015181840152602081019050610287565b50505050905090810190601f1680156102cf5780820380516001836020036101000a031916815260200191505b509250505060405180910390f35b610309600480360360208110156102f357600080fd5b81019080803590602001909291905050506110ab565b604051808273ffffffffffffffffffffffffffffffffffffffff1673ffffffffffffffffffffffffffffffffffffffff16815260200191505060405180910390f35b6103976004803603604081101561036157600080fd5b81019080803573ffffffffffffffffffffffffffffffffffffffff16906020019092919080359060200190929190505050611146565b005b61045c600480360360408110156103af57600080fd5b8101908080359060200190929190803590602001906401000000008111156103d657600080fd5b8201836020820111156103e857600080fd5b8035906020019184600183028401116401000000008311171561040a57600080fd5b91908080601f016020809104026020016040519081016040528093929190818152602001838380828437600081840152601f19601f82011690508083019250505050505050919291929050505061128a565b005b6104666112fe565b6040518082815260200191505060405180910390f35b6104e86004803603606081101561049257600080fd5b81019080803573ffffffffffffffffffffffffffffffffffffffff169060200190929190803573ffffffffffffffffffffffffffffffffffffffff1690602001909291908035906020019092919050505061130f565b005b6105366004803603604081101561050057600080fd5b81019080803573ffffffffffffffffffffffffffffffffffffffff16906020019092919080359060200190929190505050611385565b6040518082815260200191505060405180910390f35b61060f6004803603604081101561056257600080fd5b81019080803590602001909291908035906020019064010000000081111561058957600080fd5b82018360208201111561059b57600080fd5b803590602001918460018302840111640100000000831117156105bd57600080fd5b91908080601f016020809104026020016040519081016040528093929190818152602001838380828437600081840152601f19601f8201169050808301925050505050505091929192905050506113e0565b6040518082815260200191505060405180910390f35b61062d6115ab565b604051808273ffffffffffffffffffffffffffffffffffffffff1673ffffffffffffffffffffffffffffffffffffffff16815260200191505060405180910390f35b61069b6004803603602081101561068557600080fd5b81019080803590602001909291905050506115d1565b6040518080602001828103825283818151815260200191508051906020019080838360005b838110156106db5780820151818401526020810190506106c0565b50505050905090810190601f1680156107085780820380516001836020036101000a031916815260200191505b509250505060405180910390f35b61071e6115e3565b6040518082815260200191505060405180910390f35b6107a06004803603606081101561074a57600080fd5b81019080803573ffffffffffffffffffffffffffffffffffffffff169060200190929190803573ffffffffffffffffffffffffffffffffffffffff169060200190929190803590602001909291905050506115e9565b005b6107ce600480360360208110156107b857600080fd5b8101908080359060200190929190505050611609565b6040518082815260200191505060405180910390f35b6107ec61162c565b604051808273ffffffffffffffffffffffffffffffffffffffff1673ffffffffffffffffffffffffffffffffffffffff16815260200191505060405180910390f35b61085a6004803603602081101561084457600080fd5b8101908080359060200190929190505050611652565b604051808273ffffffffffffffffffffffffffffffffffffffff1673ffffffffffffffffffffffffffffffffffffffff16815260200191505060405180910390f35b6108c8600480360360208110156108b257600080fd5b8101908080359060200190929190505050611689565b6040518089815260200188815260200187815260200186815260200185815260200184815260200183815260200180602001828103825283818151815260200191508051906020019080838360005b83811015610932578082015181840152602081019050610917565b50505050905090810190601f16801561095f5780820380516001836020036101000a031916815260200191505b50995050505050505050505060405180910390f35b61097c611776565b6040518080602001828103825283818151815260200191508051906020019080838360005b838110156109bc5780820151818401526020810190506109a1565b50505050905090810190601f1680156109e95780820380516001836020036101000a031916815260200191505b509250505060405180910390f35b610a3960048036036020811015610a0d57600080fd5b81019080803573ffffffffffffffffffffffffffffffffffffffff169060200190929190505050611818565b6040518082815260200191505060405180910390f35b610a576118ed565b005b610a8560048036036020811015610a6f57600080fd5b8101908080359060200190929190505050611a5d565b6040518088815260200187815260200186815260200185815260200184815260200183815260200182815260200197505050505050505060405180910390f35b610af160048036036020811015610adb57600080fd5b8101908080359060200190929190505050611b5a565b6040518080602001858152602001848152602001838152602001828103825286818151815260200191508051906020019080838360005b83811015610b43578082015181840152602081019050610b28565b50505050905090810190601f168015610b705780820380516001836020036101000a031916815260200191505b509550505050505060405180910390f35b610bad60048036036020811015610b9757600080fd5b8101908080359060200190929190505050611d11565b6040518082815260200191505060405180910390f35b610bcb611d41565b604051808273ffffffffffffffffffffffffffffffffffffffff1673ffffffffffffffffffffffffffffffffffffffff16815260200191505060405180910390f35b610c4360048036036040811015610c2357600080fd5b810190808035906020019092919080359060200190929190505050611d6b565b005b610c4d611e3a565b6040518080602001828103825283818151815260200191508051906020019080838360005b83811015610c8d578082015181840152602081019050610c72565b50505050905090810190601f168015610cba5780820380516001836020036101000a031916815260200191505b509250505060405180910390f35b610d1660048036036040811015610cde57600080fd5b81019080803573ffffffffffffffffffffffffffffffffffffffff169060200190929190803515159060200190929190505050611edc565b005b610e1b60048036036080811015610d2e57600080fd5b81019080803573ffffffffffffffffffffffffffffffffffffffff169060200190929190803573ffffffffffffffffffffffffffffffffffffffff1690602001909291908035906020019092919080359060200190640100000000811115610d9557600080fd5b820183602082011115610da757600080fd5b80359060200191846001830284011164010000000083111715610dc957600080fd5b91908080601f016020809104026020016040519081016040528093929190818152602001838380828437600081840152601f19601f820116905080830192505050505050509192919290505050612094565b005b610e2561210c565b6040518082815260200191505060405180910390f35b610e6760048036036020811015610e5157600080fd5b8101908080359060200190929190505050612119565b6040518080602001828103825283818151815260200191508051906020019080838360005b83811015610ea7578082015181840152602081019050610e8c565b50505050905090810190601f168015610ed45780820380516001836020036101000a031916815260200191505b509250505060405180910390f35b610f4460048036036040811015610ef857600080fd5b81019080803573ffffffffffffffffffffffffffffffffffffffff169060200190929190803573ffffffffffffffffffffffffffffffffffffffff1690602001909291905050506123ea565b604051808215151515815260200191505060405180910390f35b610fa060048036036020811015610f7457600080fd5b81019080803573ffffffffffffffffffffffffffffffffffffffff16906020019092919050505061247e565b005b6000806000837bffffffffffffffffffffffffffffffffffffffffffffffffffffffff19167bffffffffffffffffffffffffffffffffffffffffffffffffffffffff1916815260200190815260200160002060009054906101000a900460ff169050919050565b606060068054600181600116156101000203166002900480601f0160208091040260200160405190810160405280929190818152602001828054600181600116156101000203166002900480156110a15780601f10611076576101008083540402835291602001916110a1565b820191906000526020600020905b81548152906001019060200180831161108457829003601f168201915b5050505050905090565b60006110b682612673565b61110b576040517f08c379a000000000000000000000000000000000000000000000000000000000815260040180806020018281038252602c815260200180614268602c913960400191505060405180910390fd5b6004600083815260200190815260200160002060009054906101000a900473ffffffffffffffffffffffffffffffffffffffff169050919050565b600061115182611652565b90508073ffffffffffffffffffffffffffffffffffffffff168373ffffffffffffffffffffffffffffffffffffffff1614156111d8576040517f08c379a00000000000000000000000000000000000000000000000000000000081526004018080602001828103825260218152602001806143186021913960400191505060405180910390fd5b8073ffffffffffffffffffffffffffffffffffffffff166111f7612690565b73ffffffffffffffffffffffffffffffffffffffff161480611226575061122581611220612690565b6123ea565b5b61127b576040517f08c379a00000000000000000000000000000000000000000000000000000000081526004018080602001828103825260388152602001806141bb6038913960400191505060405180910390fd5b6112858383612698565b505050565b61129b611295612690565b83612751565b6112f0576040517f08c379a00000000000000000000000000000000000000000000000000000000081526004018080602001828103825260318152602001806143396031913960400191505060405180910390fd5b6112fa8282612845565b5050565b600061130a60026128cf565b905090565b61132061131a612690565b82612751565b611375576040517f08c379a00000000000000000000000000000000000000000000000000000000081526004018080602001828103825260318152602001806143396031913960400191505060405180910390fd5b6113808383836128e4565b505050565b60006113d882600160008673ffffffffffffffffffffffffffffffffffffffff1673ffffffffffffffffffffffffffffffffffffffff168152602001908152602001600020612b2790919063ffffffff16565b905092915050565b6000600d547f000000000000000000000000000000000000000000000000000000000000000073ffffffffffffffffffffffffffffffffffffffff166370a08231306040518263ffffffff1660e01b8152600401808273ffffffffffffffffffffffffffffffffffffffff1673ffffffffffffffffffffffffffffffffffffffff16815260200191505060206040518083038186803b15801561148257600080fd5b505afa158015611496573d6000803e3d6000fd5b505050506040513d60208110156114ac57600080fd5b81019080805190602001909291905050501015611514576040517f08c379a000000000000000000000000000000000000000000000000000000000815260040180806020018281038252602b81526020018061413e602b913960400191505060405180910390fd5b6000611525600c54600d5486612b41565b90508260126000838152602001908152602001600020908051906020019061154e929190613ffa565b50336013600083815260200190815260200160002060006101000a81548173ffffffffffffffffffffffffffffffffffffffff021916908373ffffffffffffffffffffffffffffffffffffffff1602179055508091505092915050565b600f60009054906101000a900473ffffffffffffffffffffffffffffffffffffffff1681565b60606115dc82612119565b9050919050565b600e5481565b61160483838360405180602001604052806000815250612094565b505050565b600080611620836002612d4f90919063ffffffff16565b50905080915050919050565b601060009054906101000a900473ffffffffffffffffffffffffffffffffffffffff1681565b60006116828260405180606001604052806029815260200161421d602991396002612d7e9092919063ffffffff16565b9050919050565b6011818154811061169657fe5b9060005260206000209060080201600091509050806000015490806001015490806002015490806003015490806004015490806005015490806006015490806007018054600181600116156101000203166002900480601f01602080910402602001604051908101604052809291908181526020018280546001816001161561010002031660029004801561176c5780601f106117415761010080835404028352916020019161176c565b820191906000526020600020905b81548152906001019060200180831161174f57829003601f168201915b5050505050905088565b606060098054600181600116156101000203166002900480601f01602080910402602001604051908101604052809291908181526020018280546001816001161561010002031660029004801561180e5780601f106117e35761010080835404028352916020019161180e565b820191906000526020600020905b8154815290600101906020018083116117f157829003601f168201915b5050505050905090565b60008073ffffffffffffffffffffffffffffffffffffffff168273ffffffffffffffffffffffffffffffffffffffff16141561189f576040517f08c379a000000000000000000000000000000000000000000000000000000000815260040180806020018281038252602a8152602001806141f3602a913960400191505060405180910390fd5b6118e6600160008473ffffffffffffffffffffffffffffffffffffffff1673ffffffffffffffffffffffffffffffffffffffff168152602001908152602001600020612d9d565b9050919050565b6118f5612690565b73ffffffffffffffffffffffffffffffffffffffff16611913611d41565b73ffffffffffffffffffffffffffffffffffffffff161461199c576040517f08c379a00000000000000000000000000000000000000000000000000000000081526004018080602001828103825260208152602001807f4f776e61626c653a2063616c6c6572206973206e6f7420746865206f776e657281525060200191505060405180910390fd5b600073ffffffffffffffffffffffffffffffffffffffff16600b60009054906101000a900473ffffffffffffffffffffffffffffffffffffffff1673ffffffffffffffffffffffffffffffffffffffff167f8be0079c531659141344cd1fd0a4f28419497f9722a3daafe3b4186f6b6457e060405160405180910390a36000600b60006101000a81548173ffffffffffffffffffffffffffffffffffffffff021916908373ffffffffffffffffffffffffffffffffffffffff160217905550565b600080600080600080600060118881548110611a7557fe5b90600052602060002090600802016000015460118981548110611a9457fe5b90600052602060002090600802016001015460118a81548110611ab357fe5b90600052602060002090600802016002015460118b81548110611ad257fe5b90600052602060002090600802016003015460118c81548110611af157fe5b90600052602060002090600802016004015460118d81548110611b1057fe5b90600052602060002090600802016005015460118e81548110611b2f57fe5b9060005260206000209060080201600601549650965096509650965096509650919395979092949650565b6060600080600060118581548110611b6e57fe5b906000526020600020906008020160070160118681548110611b8c57fe5b90600052602060002090600802016005015460118781548110611bab57fe5b90600052602060002090600802016004015460118881548110611bca57fe5b90600052602060002090600802016003015460118981548110611be957fe5b90600052602060002090600802016002015460118a81548110611c0857fe5b90600052602060002090600802016001015460118b81548110611c2757fe5b9060005260206000209060080201600001540101010101611c4787611d11565b60118881548110611c5457fe5b906000526020600020906008020160060154838054600181600116156101000203166002900480601f016020809104026020016040519081016040528092919081815260200182805460018160011615610100020316600290048015611cfb5780601f10611cd057610100808354040283529160200191611cfb565b820191906000526020600020905b815481529060010190602001808311611cde57829003601f168201915b5050505050935093509350935093509193509193565b6000611d3a60118381548110611d2357fe5b906000526020600020906008020160060154612db2565b9050919050565b6000600b60009054906101000a900473ffffffffffffffffffffffffffffffffffffffff16905090565b7f000000000000000000000000000000000000000000000000000000000000000073ffffffffffffffffffffffffffffffffffffffff163373ffffffffffffffffffffffffffffffffffffffff1614611e2c576040517f08c379a000000000000000000000000000000000000000000000000000000000815260040180806020018281038252601f8152602001807f4f6e6c7920565246436f6f7264696e61746f722063616e2066756c66696c6c0081525060200191505060405180910390fd5b611e368282612df7565b5050565b606060078054600181600116156101000203166002900480601f016020809104026020016040519081016040528092919081815260200182805460018160011615610100020316600290048015611ed25780601f10611ea757610100808354040283529160200191611ed2565b820191906000526020600020905b815481529060010190602001808311611eb557829003601f168201915b5050505050905090565b611ee4612690565b73ffffffffffffffffffffffffffffffffffffffff168273ffffffffffffffffffffffffffffffffffffffff161415611f85576040517f08c379a00000000000000000000000000000000000000000000000000000000081526004018080602001828103825260198152602001807f4552433732313a20617070726f766520746f2063616c6c65720000000000000081525060200191505060405180910390fd5b8060056000611f92612690565b73ffffffffffffffffffffffffffffffffffffffff1673ffffffffffffffffffffffffffffffffffffffff16815260200190815260200160002060008473ffffffffffffffffffffffffffffffffffffffff1673ffffffffffffffffffffffffffffffffffffffff16815260200190815260200160002060006101000a81548160ff0219169083151502179055508173ffffffffffffffffffffffffffffffffffffffff1661203f612690565b73ffffffffffffffffffffffffffffffffffffffff167f17307eab39ab6107e8899845ad3d59bd9653f200f220920489ca2b5937696c3183604051808215151515815260200191505060405180910390a35050565b6120a561209f612690565b83612751565b6120fa576040517f08c379a00000000000000000000000000000000000000000000000000000000081526004018080602001828103825260318152602001806143396031913960400191505060405180910390fd5b61210684848484613068565b50505050565b6000601180549050905090565b606061212482612673565b612179576040517f08c379a000000000000000000000000000000000000000000000000000000000815260040180806020018281038252602f8152602001806142e9602f913960400191505060405180910390fd5b6060600860008481526020019081526020016000208054600181600116156101000203166002900480601f0160208091040260200160405190810160405280929190818152602001828054600181600116156101000203166002900480156122225780601f106121f757610100808354040283529160200191612222565b820191906000526020600020905b81548152906001019060200180831161220557829003601f168201915b505050505090506060612233611776565b90506000815114156122495781925050506123e5565b60008251111561231a5780826040516020018083805190602001908083835b6020831061228b5780518252602082019150602081019050602083039250612268565b6001836020036101000a03801982511681845116808217855250505050505090500182805190602001908083835b602083106122dc57805182526020820191506020810190506020830392506122b9565b6001836020036101000a03801982511681845116808217855250505050505090500192505050604051602081830303815290604052925050506123e5565b80612324856130da565b6040516020018083805190602001908083835b6020831061235a5780518252602082019150602081019050602083039250612337565b6001836020036101000a03801982511681845116808217855250505050505090500182805190602001908083835b602083106123ab5780518252602082019150602081019050602083039250612388565b6001836020036101000a03801982511681845116808217855250505050505090500192505050604051602081830303815290604052925050505b919050565b6000600560008473ffffffffffffffffffffffffffffffffffffffff1673ffffffffffffffffffffffffffffffffffffffff16815260200190815260200160002060008373ffffffffffffffffffffffffffffffffffffffff1673ffffffffffffffffffffffffffffffffffffffff16815260200190815260200160002060009054906101000a900460ff16905092915050565b612486612690565b73ffffffffffffffffffffffffffffffffffffffff166124a4611d41565b73ffffffffffffffffffffffffffffffffffffffff161461252d576040517f08c379a00000000000000000000000000000000000000000000000000000000081526004018080602001828103825260208152602001807f4f776e61626c653a2063616c6c6572206973206e6f7420746865206f776e657281525060200191505060405180910390fd5b600073ffffffffffffffffffffffffffffffffffffffff168173ffffffffffffffffffffffffffffffffffffffff1614156125b3576040517f08c379a00000000000000000000000000000000000000000000000000000000081526004018080602001828103825260268152602001806140f46026913960400191505060405180910390fd5b8073ffffffffffffffffffffffffffffffffffffffff16600b60009054906101000a900473ffffffffffffffffffffffffffffffffffffffff1673ffffffffffffffffffffffffffffffffffffffff167f8be0079c531659141344cd1fd0a4f28419497f9722a3daafe3b4186f6b6457e060405160405180910390a380600b60006101000a81548173ffffffffffffffffffffffffffffffffffffffff021916908373ffffffffffffffffffffffffffffffffffffffff16021790555050565b600061268982600261322190919063ffffffff16565b9050919050565b600033905090565b816004600083815260200190815260200160002060006101000a81548173ffffffffffffffffffffffffffffffffffffffff021916908373ffffffffffffffffffffffffffffffffffffffff160217905550808273ffffffffffffffffffffffffffffffffffffffff1661270b83611652565b73ffffffffffffffffffffffffffffffffffffffff167f8c5be1e5ebec7d5bd14f71427d1e84f3dd0314c0f7b2291e5b200ac8c7c3b92560405160405180910390a45050565b600061275c82612673565b6127b1576040517f08c379a000000000000000000000000000000000000000000000000000000000815260040180806020018281038252602c81526020018061418f602c913960400191505060405180910390fd5b60006127bc83611652565b90508073ffffffffffffffffffffffffffffffffffffffff168473ffffffffffffffffffffffffffffffffffffffff16148061282b57508373ffffffffffffffffffffffffffffffffffffffff16612813846110ab565b73ffffffffffffffffffffffffffffffffffffffff16145b8061283c575061283b81856123ea565b5b91505092915050565b61284e82612673565b6128a3576040517f08c379a000000000000000000000000000000000000000000000000000000000815260040180806020018281038252602c815260200180614294602c913960400191505060405180910390fd5b806008600084815260200190815260200160002090805190602001906128ca929190613ffa565b505050565b60006128dd8260000161323b565b9050919050565b8273ffffffffffffffffffffffffffffffffffffffff1661290482611652565b73ffffffffffffffffffffffffffffffffffffffff1614612970576040517f08c379a00000000000000000000000000000000000000000000000000000000081526004018080602001828103825260298152602001806142c06029913960400191505060405180910390fd5b600073ffffffffffffffffffffffffffffffffffffffff168273ffffffffffffffffffffffffffffffffffffffff1614156129f6576040517f08c379a000000000000000000000000000000000000000000000000000000000815260040180806020018281038252602481526020018061411a6024913960400191505060405180910390fd5b612a0183838361324c565b612a0c600082612698565b612a5d81600160008673ffffffffffffffffffffffffffffffffffffffff1673ffffffffffffffffffffffffffffffffffffffff16815260200190815260200160002061325190919063ffffffff16565b50612aaf81600160008573ffffffffffffffffffffffffffffffffffffffff1673ffffffffffffffffffffffffffffffffffffffff16815260200190815260200160002061326b90919063ffffffff16565b50612ac6818360026132859092919063ffffffff16565b50808273ffffffffffffffffffffffffffffffffffffffff168473ffffffffffffffffffffffffffffffffffffffff167fddf252ad1be2c89b69c2b068fc378daa952ba7f163c4a11628f55a4df523b3ef60405160405180910390a4505050565b6000612b3683600001836132ba565b60001c905092915050565b60007f000000000000000000000000000000000000000000000000000000000000000073ffffffffffffffffffffffffffffffffffffffff16634000aea07f000000000000000000000000000000000000000000000000000000000000000085878660405160200180838152602001828152602001925050506040516020818303038152906040526040518463ffffffff1660e01b8152600401808473ffffffffffffffffffffffffffffffffffffffff1673ffffffffffffffffffffffffffffffffffffffff16815260200183815260200180602001828103825283818151815260200191508051906020019080838360005b83811015612c50578082015181840152602081019050612c35565b50505050905090810190601f168015612c7d5780820380516001836020036101000a031916815260200191505b50945050505050602060405180830381600087803b158015612c9e57600080fd5b505af1158015612cb2573d6000803e3d6000fd5b505050506040513d6020811015612cc857600080fd5b8101908080519060200190929190505050506000612cfb858430600a60008a81526020019081526020016000205461333d565b9050612d246001600a6000888152602001908152602001600020546133b790919063ffffffff16565b600a600087815260200190815260200160002081905550612d45858261343f565b9150509392505050565b600080600080612d628660000186613478565b915091508160001c8160001c8090509350935050509250929050565b6000612d91846000018460001b84613511565b60001c90509392505050565b6000612dab82600001613607565b9050919050565b60008060026001840181612dc257fe5b0490508291505b81811015612df157809150600281828581612de057fe5b040181612de957fe5b049050612dc9565b50919050565b60006011805490509050600060648381612e0d57fe5b069050600060646127108581612e1f57fe5b0681612e2757fe5b0490506000612710620f42408681612e3b57fe5b0681612e4357fe5b0490506000620f42406305f5e1008781612e5957fe5b0681612e6157fe5b04905060006305f5e1006402540be4008881612e7957fe5b0681612e8157fe5b04905060006402540be40064e8d4a510008981612e9a57fe5b0681612ea257fe5b04905060008090506011604051806101000160405280898152602001888152602001878152602001868152602001858152602001848152602001838152602001601260008e81526020019081526020016000208054600181600116156101000203166002900480601f016020809104026020016040519081016040528092919081815260200182805460018160011615610100020316600290048015612f895780601f10612f5e57610100808354040283529160200191612f89565b820191906000526020600020905b815481529060010190602001808311612f6c57829003601f168201915b50505050508152509080600181540180825580915050600190039060005260206000209060080201600090919091909150600082015181600001556020820151816001015560408201518160020155606082015181600301556080820151816004015560a0820151816005015560c0820151816006015560e082015181600701908051906020019061301c929190613ffa565b50505061305c601360008c815260200190815260200160002060009054906101000a900473ffffffffffffffffffffffffffffffffffffffff1689613618565b50505050505050505050565b6130738484846128e4565b61307f84848484613636565b6130d4576040517f08c379a00000000000000000000000000000000000000000000000000000000081526004018080602001828103825260328152602001806140c26032913960400191505060405180910390fd5b50505050565b60606000821415613122576040518060400160405280600181526020017f3000000000000000000000000000000000000000000000000000000000000000815250905061321c565b600082905060005b6000821461314c578080600101915050600a828161314457fe5b04915061312a565b60608167ffffffffffffffff8111801561316557600080fd5b506040519080825280601f01601f1916602001820160405280156131985781602001600182028036833780820191505090505b50905060006001830390508593505b6000841461321457600a84816131b957fe5b0660300160f81b828280600190039350815181106131d357fe5b60200101907effffffffffffffffffffffffffffffffffffffffffffffffffffffffffffff1916908160001a905350600a848161320c57fe5b0493506131a7565b819450505050505b919050565b6000613233836000018360001b61387b565b905092915050565b600081600001805490509050919050565b505050565b6000613263836000018360001b61389e565b905092915050565b600061327d836000018360001b613986565b905092915050565b60006132b1846000018460001b8473ffffffffffffffffffffffffffffffffffffffff1660001b6139f6565b90509392505050565b60008183600001805490501161331b576040517f08c379a00000000000000000000000000000000000000000000000000000000081526004018080602001828103825260228152602001806140a06022913960400191505060405180910390fd5b82600001828154811061332a57fe5b9060005260206000200154905092915050565b600084848484604051602001808581526020018481526020018373ffffffffffffffffffffffffffffffffffffffff1673ffffffffffffffffffffffffffffffffffffffff1681526020018281526020019450505050506040516020818303038152906040528051906020012060001c9050949350505050565b600080828401905083811015613435576040517f08c379a000000000000000000000000000000000000000000000000000000000815260040180806020018281038252601b8152602001807f536166654d6174683a206164646974696f6e206f766572666c6f77000000000081525060200191505060405180910390fd5b8091505092915050565b60008282604051602001808381526020018281526020019250505060405160208183030381529060405280519060200120905092915050565b600080828460000180549050116134da576040517f08c379a00000000000000000000000000000000000000000000000000000000081526004018080602001828103825260228152602001806142466022913960400191505060405180910390fd5b60008460000184815481106134eb57fe5b906000526020600020906002020190508060000154816001015492509250509250929050565b600080846001016000858152602001908152602001600020549050600081141583906135d8576040517f08c379a00000000000000000000000000000000000000000000000000000000081526004018080602001828103825283818151815260200191508051906020019080838360005b8381101561359d578082015181840152602081019050613582565b50505050905090810190601f1680156135ca5780820380516001836020036101000a031916815260200191505b509250505060405180910390fd5b508460000160018203815481106135eb57fe5b9060005260206000209060020201600101549150509392505050565b600081600001805490509050919050565b613632828260405180602001604052806000815250613ad2565b5050565b60006136578473ffffffffffffffffffffffffffffffffffffffff16613b43565b6136645760019050613873565b60606137fa63150b7a0260e01b613679612690565b888787604051602401808573ffffffffffffffffffffffffffffffffffffffff1673ffffffffffffffffffffffffffffffffffffffff1681526020018473ffffffffffffffffffffffffffffffffffffffff1673ffffffffffffffffffffffffffffffffffffffff16815260200183815260200180602001828103825283818151815260200191508051906020019080838360005b8381101561372957808201518184015260208101905061370e565b50505050905090810190601f1680156137565780820380516001836020036101000a031916815260200191505b5095505050505050604051602081830303815290604052907bffffffffffffffffffffffffffffffffffffffffffffffffffffffff19166020820180517bffffffffffffffffffffffffffffffffffffffffffffffffffffffff83818316178352505050506040518060600160405280603281526020016140c2603291398773ffffffffffffffffffffffffffffffffffffffff16613b569092919063ffffffff16565b9050600081806020019051602081101561381357600080fd5b8101908080519060200190929190505050905063150b7a0260e01b7bffffffffffffffffffffffffffffffffffffffffffffffffffffffff1916817bffffffffffffffffffffffffffffffffffffffffffffffffffffffff191614925050505b949350505050565b600080836001016000848152602001908152602001600020541415905092915050565b6000808360010160008481526020019081526020016000205490506000811461397a57600060018203905060006001866000018054905003905060008660000182815481106138e957fe5b906000526020600020015490508087600001848154811061390657fe5b906000526020600020018190555060018301876001016000838152602001908152602001600020819055508660000180548061393e57fe5b60019003818190600052602060002001600090559055866001016000878152602001908152602001600020600090556001945050505050613980565b60009150505b92915050565b60006139928383613b6e565b6139eb5782600001829080600181540180825580915050600190039060005260206000200160009091909190915055826000018054905083600101600084815260200190815260200160002081905550600190506139f0565b600090505b92915050565b6000808460010160008581526020019081526020016000205490506000811415613a9d57846000016040518060400160405280868152602001858152509080600181540180825580915050600190039060005260206000209060020201600090919091909150600082015181600001556020820151816001015550508460000180549050856001016000868152602001908152602001600020819055506001915050613acb565b82856000016001830381548110613ab057fe5b90600052602060002090600202016001018190555060009150505b9392505050565b613adc8383613b91565b613ae96000848484613636565b613b3e576040517f08c379a00000000000000000000000000000000000000000000000000000000081526004018080602001828103825260328152602001806140c26032913960400191505060405180910390fd5b505050565b600080823b905060008111915050919050565b6060613b658484600085613d85565b90509392505050565b600080836001016000848152602001908152602001600020541415905092915050565b600073ffffffffffffffffffffffffffffffffffffffff168273ffffffffffffffffffffffffffffffffffffffff161415613c34576040517f08c379a00000000000000000000000000000000000000000000000000000000081526004018080602001828103825260208152602001807f4552433732313a206d696e7420746f20746865207a65726f206164647265737381525060200191505060405180910390fd5b613c3d81612673565b15613cb0576040517f08c379a000000000000000000000000000000000000000000000000000000000815260040180806020018281038252601c8152602001807f4552433732313a20746f6b656e20616c7265616479206d696e7465640000000081525060200191505060405180910390fd5b613cbc6000838361324c565b613d0d81600160008573ffffffffffffffffffffffffffffffffffffffff1673ffffffffffffffffffffffffffffffffffffffff16815260200190815260200160002061326b90919063ffffffff16565b50613d24818360026132859092919063ffffffff16565b50808273ffffffffffffffffffffffffffffffffffffffff16600073ffffffffffffffffffffffffffffffffffffffff167fddf252ad1be2c89b69c2b068fc378daa952ba7f163c4a11628f55a4df523b3ef60405160405180910390a45050565b606082471015613de0576040517f08c379a00000000000000000000000000000000000000000000000000000000081526004018080602001828103825260268152602001806141696026913960400191505060405180910390fd5b613de985613b43565b613e5b576040517f08c379a000000000000000000000000000000000000000000000000000000000815260040180806020018281038252601d8152602001807f416464726573733a2063616c6c20746f206e6f6e2d636f6e747261637400000081525060200191505060405180910390fd5b600060608673ffffffffffffffffffffffffffffffffffffffff1685876040518082805190602001908083835b60208310613eab5780518252602082019150602081019050602083039250613e88565b6001836020036101000a03801982511681845116808217855250505050505090500191505060006040518083038185875af1925050503d8060008114613f0d576040519150601f19603f3d011682016040523d82523d6000602084013e613f12565b606091505b5091509150613f22828286613f2e565b92505050949350505050565b60608315613f3e57829050613ff3565b600083511115613f515782518084602001fd5b816040517f08c379a00000000000000000000000000000000000000000000000000000000081526004018080602001828103825283818151815260200191508051906020019080838360005b83811015613fb8578082015181840152602081019050613f9d565b50505050905090810190601f168015613fe55780820380516001836020036101000a031916815260200191505b509250505060405180910390fd5b9392505050565b828054600181600116156101000203166002900490600052602060002090601f016020900481019282601f1061403b57805160ff1916838001178555614069565b82800160010185558215614069579182015b8281111561406857825182559160200191906001019061404d565b5b509050614076919061407a565b5090565b61409c91905b80821115614098576000816000905550600101614080565b5090565b9056fe456e756d657261626c655365743a20696e646578206f7574206f6620626f756e64734552433732313a207472616e7366657220746f206e6f6e20455243373231526563656976657220696d706c656d656e7465724f776e61626c653a206e6577206f776e657220697320746865207a65726f20616464726573734552433732313a207472616e7366657220746f20746865207a65726f20616464726573734e6f7420656e6f756768204c494e4b202d2066696c6c20636f6e7472616374207769746820666175636574416464726573733a20696e73756666696369656e742062616c616e636520666f722063616c6c4552433732313a206f70657261746f7220717565727920666f72206e6f6e6578697374656e7420746f6b656e4552433732313a20617070726f76652063616c6c6572206973206e6f74206f776e6572206e6f7220617070726f76656420666f7220616c6c4552433732313a2062616c616e636520717565727920666f7220746865207a65726f20616464726573734552433732313a206f776e657220717565727920666f72206e6f6e6578697374656e7420746f6b656e456e756d657261626c654d61703a20696e646578206f7574206f6620626f756e64734552433732313a20617070726f76656420717565727920666f72206e6f6e6578697374656e7420746f6b656e4552433732314d657461646174613a2055524920736574206f66206e6f6e6578697374656e7420746f6b656e4552433732313a207472616e73666572206f6620746f6b656e2074686174206973206e6f74206f776e4552433732314d657461646174613a2055524920717565727920666f72206e6f6e6578697374656e7420746f6b656e4552433732313a20617070726f76616c20746f2063757272656e74206f776e65724552433732313a207472616e736665722063616c6c6572206973206e6f74206f776e6572206e6f7220617070726f766564a26469706673582212203dcc3fe17a07a030bc01ea0a985e1e47a5c94dc07c9ebdc49cbe073d221cac4c64736f6c63430006060033",
  "immutableReferences": {
    "588": [
      {
        "length": 32,
        "start": 5095
      },
      {
        "length": 32,
        "start": 11077
      }
    ],
    "590": [
      {
        "length": 32,
        "start": 7533
      },
      {
        "length": 32,
        "start": 11137
      }
    ]
  },
  "source": "// SPDX-License-Identifier: MIT\r\n// contracts/NoteBoxFactory.sol\r\n// SPDX-License-Identifier: MIT\r\npragma solidity ^0.6.6;\r\n\r\nimport \"@openzeppelin/contracts/token/ERC721/ERC721.sol\";\r\nimport \"@chainlink/contracts/src/v0.6/VRFConsumerBase.sol\";\r\nimport \"@openzeppelin/contracts/access/Ownable.sol\";\r\nimport \"@openzeppelin/contracts/utils/Strings.sol\";\r\n\r\ncontract NoteBoxFactory is ERC721, VRFConsumerBase, Ownable {\r\n    using SafeMath for uint256;\r\n    using Strings for string;\r\n\r\n    bytes32 internal keyHash;\r\n    uint256 internal fee;\r\n    uint256 public randomResult;\r\n    address public VRFCoordinator;\r\n    // rinkeby: 0xb3dCcb4Cf7a26f6cf6B120Cf5A73875B7BBc655B\r\n    address public LinkToken;\r\n    // rinkeby: 0x01BE23585060835E02B77ef475b0Cc51aA1e0709a\r\n\r\n    struct NoteBox {\r\n        uint256 strength;\r\n        uint256 dexterity;\r\n        uint256 constitution;\r\n        uint256 intelligence;\r\n        uint256 wisdom;\r\n        uint256 charisma;\r\n        uint256 experience;\r\n        string name;\r\n    }\r\n\r\n    NoteBox[] public noteBoxes;\r\n\r\n    mapping(bytes32 => string) requestToNoteBoxName;\r\n    mapping(bytes32 => address) requestToSender;\r\n    mapping(bytes32 => uint256) requestToTokenId;\r\n\r\n     /**\r\n     * Constructor inherits VRFConsumerBase\r\n     *\r\n     * Network: Rinkeby\r\n     * Chainlink VRF Coordinator address: 0xb3dCcb4Cf7a26f6cf6B120Cf5A73875B7BBc655B\r\n     * LINK token address:                0x01BE23585060835E02B77ef475b0Cc51aA1e0709\r\n     * Key Hash: 0x2ed0feb3e7fd2022120aa84fab1945545a9f2ffc9076fd6156fa96eaff4c1311\r\n     */\r\n    constructor(address _VRFCoordinator, address _LinkToken, bytes32 _keyhash)\r\n        public\r\n        VRFConsumerBase(_VRFCoordinator, _LinkToken)\r\n        ERC721(\"NoteBoxFactory\", \"D&D\")\r\n    {   \r\n        VRFCoordinator = _VRFCoordinator;\r\n        LinkToken = _LinkToken;\r\n        keyHash = _keyhash;\r\n        fee = 0.1 * 10**18; // 0.1 LINK\r\n    }\r\n\r\n    function requestNewRandomNoteBox(\r\n        uint256 userProvidedSeed,\r\n        string memory name\r\n    ) public returns (bytes32) {\r\n        require(\r\n            LINK.balanceOf(address(this)) >= fee,\r\n            \"Not enough LINK - fill contract with faucet\"\r\n        );\r\n        bytes32 requestId = requestRandomness(keyHash, fee, userProvidedSeed);\r\n        requestToNoteBoxName[requestId] = name;\r\n        requestToSender[requestId] = msg.sender;\r\n        return requestId;\r\n    }\r\n\r\n    function getTokenURI(uint256 tokenId) public view returns (string memory) {\r\n        return tokenURI(tokenId);\r\n    }\r\n\r\n    function setTokenURI(uint256 tokenId, string memory _tokenURI) public {\r\n        require(\r\n            _isApprovedOrOwner(_msgSender(), tokenId),\r\n            \"ERC721: transfer caller is not owner nor approved\"\r\n        );\r\n        _setTokenURI(tokenId, _tokenURI);\r\n    }\r\n\r\n    function fulfillRandomness(bytes32 requestId, uint256 randomNumber)\r\n        internal\r\n        override\r\n    {\r\n        uint256 newId = noteBoxes.length;\r\n        uint256 strength = (randomNumber % 100);\r\n        uint256 dexterity = ((randomNumber % 10000) / 100 );\r\n        uint256 constitution = ((randomNumber % 1000000) / 10000 );\r\n        uint256 intelligence = ((randomNumber % 100000000) / 1000000 );\r\n        uint256 wisdom = ((randomNumber % 10000000000) / 100000000 );\r\n        uint256 charisma = ((randomNumber % 1000000000000) / 10000000000);\r\n        uint256 experience = 0;\r\n\r\n        noteBoxes.push(\r\n            NoteBox(\r\n                strength,\r\n                dexterity,\r\n                constitution,\r\n                intelligence,\r\n                wisdom,\r\n                charisma,\r\n                experience,\r\n                requestToNoteBoxName[requestId]\r\n            )\r\n        );\r\n        _safeMint(requestToSender[requestId], newId);\r\n    }\r\n\r\n    function getLevel(uint256 tokenId) public view returns (uint256) {\r\n        return sqrt(noteBoxes[tokenId].experience);\r\n    }\r\n\r\n    function getNumberOfNoteBoxes() public view returns (uint256) {\r\n        return noteBoxes.length; \r\n    }\r\n\r\n    function getNoteBoxOverView(uint256 tokenId)\r\n        public\r\n        view\r\n        returns (\r\n            string memory,\r\n            uint256,\r\n            uint256,\r\n            uint256\r\n        )\r\n    {\r\n        return (\r\n            noteBoxes[tokenId].name,\r\n            noteBoxes[tokenId].strength + noteBoxes[tokenId].dexterity + noteBoxes[tokenId].constitution + noteBoxes[tokenId].intelligence + noteBoxes[tokenId].wisdom + noteBoxes[tokenId].charisma,\r\n            getLevel(tokenId),\r\n            noteBoxes[tokenId].experience\r\n        );\r\n    }\r\n\r\n    function getNoteBoxStats(uint256 tokenId)\r\n        public\r\n        view\r\n        returns (\r\n            uint256,\r\n            uint256,\r\n            uint256,\r\n            uint256,\r\n            uint256,\r\n            uint256,\r\n            uint256\r\n        )\r\n    {\r\n        return (\r\n            noteBoxes[tokenId].strength,\r\n            noteBoxes[tokenId].dexterity,\r\n            noteBoxes[tokenId].constitution,\r\n            noteBoxes[tokenId].intelligence,\r\n            noteBoxes[tokenId].wisdom,\r\n            noteBoxes[tokenId].charisma,\r\n            noteBoxes[tokenId].experience\r\n        );\r\n    }\r\n\r\n    function sqrt(uint256 x) internal view returns (uint256 y) {\r\n        uint256 z = (x + 1) / 2;\r\n        y = x;\r\n        while (z < y) {\r\n            y = z;\r\n            z = (x / z + z) / 2;\r\n        }\r\n    }\r\n}\r\n\r\n\r\n// pragma solidity ^0.6.6;\r\n\r\n// import \"@chainlink/contracts/src/v0.6/VRFConsumerBase.sol\";\r\n\r\n// contract RandomNumberConsumer is VRFConsumerBase {\r\n    \r\n//     bytes32 internal keyHash;\r\n//     uint256 internal fee;\r\n//     uint256 public randomResult;\r\n//     event RequestedRandomness(bytes32 requestId);\r\n    \r\n//     /**\r\n//      * Constructor inherits VRFConsumerBase\r\n//      * \r\n//      * Network: Kovan\r\n//      * Chainlink VRF Coordinator address: 0xdD3782915140c8f3b190B5D67eAc6dc5760C46E9\r\n//      * LINK token address:                0xa36085F69e2889c224210F603D836748e7dC0088\r\n//      * Key Hash: 0x6c3699283bda56ad74f6b855546325b68d482e983852a7a82979cc4807b641f4\r\n//      */\r\n//     constructor(address _linkTokenAddress, bytes32 _keyHash, \r\n//     address _vrfCoordinatorAddress, uint256 _fee)\r\n//         public\r\n//         VRFConsumerBase(\r\n//             _vrfCoordinatorAddress, // VRF Coordinator\r\n//             _linkTokenAddress  // LINK Token\r\n//         )\r\n//     {\r\n//         keyHash = _keyHash;\r\n//         fee = _fee;\r\n//     }\r\n    \r\n//     /** \r\n//      * Requests randomness from a user-provided seed\r\n//      */\r\n//     function getRandomNumber(uint256 userProvidedSeed) public returns (bytes32 requestId) {\r\n//         requestId = requestRandomness(keyHash, fee, userProvidedSeed);\r\n//         emit RequestedRandomness(requestId);\r\n//     }\r\n\r\n//     /** \r\n//      * Requests the address of the Chainlink Token on this network \r\n//      */\r\n//     function getChainlinkToken() public view returns (address) {\r\n//         return address(LINK);\r\n//     }\r\n\r\n//     /**\r\n//      * Callback function used by VRF Coordinator\r\n//      */\r\n//     function fulfillRandomness(bytes32 /* requestId */, uint256 randomness) internal override {\r\n//         randomResult = randomness;\r\n//     }\r\n// }\r\n",
  "sourcePath": "C:/Users/tippi/BL_CKCH__N/tippi/contracts/NoteBoxFactory.sol",
  "compiler": {
    "name": "solc",
    "version": "0.6.6+commit.6c089d02.Emscripten.clang"
  },
  "schemaVersion": "3.3.4",
  "updatedAt": "2021-04-11T22:28:54.960Z",
  "networkType": "ethereum",
  "devdoc": {
    "methods": {
      "approve(address,uint256)": {
        "details": "See {IERC721-approve}."
      },
      "balanceOf(address)": {
        "details": "See {IERC721-balanceOf}."
      },
      "baseURI()": {
        "details": "Returns the base URI set via {_setBaseURI}. This will be automatically added as a prefix in {tokenURI} to each token's URI, or to the token ID if no specific URI is set for that token ID."
      },
      "getApproved(uint256)": {
        "details": "See {IERC721-getApproved}."
      },
      "isApprovedForAll(address,address)": {
        "details": "See {IERC721-isApprovedForAll}."
      },
      "name()": {
        "details": "See {IERC721Metadata-name}."
      },
      "owner()": {
        "details": "Returns the address of the current owner."
      },
      "ownerOf(uint256)": {
        "details": "See {IERC721-ownerOf}."
      },
      "renounceOwnership()": {
        "details": "Leaves the contract without owner. It will not be possible to call `onlyOwner` functions anymore. Can only be called by the current owner.     * NOTE: Renouncing ownership will leave the contract without an owner, thereby removing any functionality that is only available to the owner."
      },
      "safeTransferFrom(address,address,uint256)": {
        "details": "See {IERC721-safeTransferFrom}."
      },
      "safeTransferFrom(address,address,uint256,bytes)": {
        "details": "See {IERC721-safeTransferFrom}."
      },
      "setApprovalForAll(address,bool)": {
        "details": "See {IERC721-setApprovalForAll}."
      },
      "supportsInterface(bytes4)": {
        "details": "See {IERC165-supportsInterface}.     * Time complexity O(1), guaranteed to always use less than 30 000 gas."
      },
      "symbol()": {
        "details": "See {IERC721Metadata-symbol}."
      },
      "tokenByIndex(uint256)": {
        "details": "See {IERC721Enumerable-tokenByIndex}."
      },
      "tokenOfOwnerByIndex(address,uint256)": {
        "details": "See {IERC721Enumerable-tokenOfOwnerByIndex}."
      },
      "tokenURI(uint256)": {
        "details": "See {IERC721Metadata-tokenURI}."
      },
      "totalSupply()": {
        "details": "See {IERC721Enumerable-totalSupply}."
      },
      "transferFrom(address,address,uint256)": {
        "details": "See {IERC721-transferFrom}."
      },
      "transferOwnership(address)": {
        "details": "Transfers ownership of the contract to a new account (`newOwner`). Can only be called by the current owner."
      }
    }
  },
  "userdoc": {
    "methods": {
      "constructor": "Constructor inherits VRFConsumerBase      * Network: Rinkeby Chainlink VRF Coordinator address: 0xb3dCcb4Cf7a26f6cf6B120Cf5A73875B7BBc655B LINK token address:                0x01BE23585060835E02B77ef475b0Cc51aA1e0709 Key Hash: 0x2ed0feb3e7fd2022120aa84fab1945545a9f2ffc9076fd6156fa96eaff4c1311"
    }
  }
}